{
  "contractName": "OracleSc",
  "abi": [
    {
      "inputs": [
        {
          "internalType": "address",
          "name": "_oracleAddress",
          "type": "address"
        }
      ],
      "stateMutability": "nonpayable",
      "type": "constructor"
    },
    {
      "anonymous": false,
      "inputs": [
        {
          "indexed": false,
          "internalType": "string",
          "name": "temperature",
          "type": "string"
        }
      ],
      "name": "WeatherUpdate",
      "type": "event"
    },
    {
      "inputs": [],
      "name": "oracleAddress",
      "outputs": [
        {
          "internalType": "address",
          "name": "",
          "type": "address"
        }
      ],
      "stateMutability": "view",
      "type": "function"
    },
    {
      "inputs": [
        {
          "internalType": "string",
          "name": "temperature",
          "type": "string"
        }
      ],
      "name": "updateWeather",
      "outputs": [],
      "stateMutability": "nonpayable",
      "type": "function"
    }
  ],
  "bytecode": "0x608060405234801561001057600080fd5b506040516103ad3803806103ad8339818101604052602081101561003357600080fd5b8101908080519060200190929190505050806000806101000a81548173ffffffffffffffffffffffffffffffffffffffff021916908373ffffffffffffffffffffffffffffffffffffffff16021790555050610319806100946000396000f3fe608060405234801561001057600080fd5b5060043610610053576000357c01000000000000000000000000000000000000000000000000000000009004806350c556d014610058578063a89ae4ba14610113575b600080fd5b6101116004803603602081101561006e57600080fd5b810190808035906020019064010000000081111561008b57600080fd5b82018360208201111561009d57600080fd5b803590602001918460018302840111640100000000831117156100bf57600080fd5b91908080601f016020809104026020016040519081016040528093929190818152602001838380828437600081840152601f19601f82011690508083019250505050505050919291929050505061015d565b005b61011b6102be565b604051808273ffffffffffffffffffffffffffffffffffffffff1673ffffffffffffffffffffffffffffffffffffffff16815260200191505060405180910390f35b6000809054906101000a900473ffffffffffffffffffffffffffffffffffffffff1673ffffffffffffffffffffffffffffffffffffffff163373ffffffffffffffffffffffffffffffffffffffff161461021f576040517f08c379a000000000000000000000000000000000000000000000000000000000815260040180806020018281038252601a8152602001807f4e6f742066726f6d2077686974656c697374206164647265737300000000000081525060200191505060405180910390fd5b7fa16e637a8c0d0f8b7875d68cfea55aae957be8024685f9fda1925a0353c97d1d816040518080602001828103825283818151815260200191508051906020019080838360005b83811015610281578082015181840152602081019050610266565b50505050905090810190601f1680156102ae5780820380516001836020036101000a031916815260200191505b509250505060405180910390a150565b6000809054906101000a900473ffffffffffffffffffffffffffffffffffffffff168156fea2646970667358221220866ca8343567be36fe816e5672c64c1137e1d278e098f885b878aae29c69577364736f6c63430006000033",
  "source": "pragma solidity ^0.6.0;\r\n\r\ncontract OracleSc {\r\n    event WeatherUpdate(string temperature);\r\n    address public oracleAddress;\r\n\r\n    constructor(address _oracleAddress) public {\r\n        oracleAddress = _oracleAddress;\r\n    }\r\n\r\n    function updateWeather(string memory temperature) public {\r\n        require(msg.sender == oracleAddress, \"Not from whitelist address\");\r\n        emit WeatherUpdate(temperature);\r\n    }\r\n}\r\n",
  "sourcePath": "E:\\BLOCKCHAIN_STUFF\\ORACLE\\contracts\\OracleSc.sol",
  "compiler": {
    "name": "solc",
    "version": "0.6.0+commit.26b70077.Emscripten.clang"
  },
  "schemaVersion": "3.1.0",
  "updatedAt": "2020-06-29T06:52:51.637Z",
  "devdoc": {
    "methods": {}
  },
  "userdoc": {
    "methods": {}
  }
}